:100000009BC00000B7C00000B5C00000B3C0000036
:10001000B1C00000AFC00000ADC00000ABC0000028
:10002000A9C00000A7C0000055C40000A3C0000084
:10003000A1C000009FC000009DC000009BC0000048
:1000400099C0000097C0000095C0000093C0000058
:1000500091C000008FC000008DC000008BC0000068
:1000600089C0000054C1000085C0000083C00000AA
:1000700081C000007FC000007DC000007BC0000088
:1000800079C0000077C0000075C0000073C0000098
:1000900071C000006FC00000100348004900440018
:1000A000550049004E004F00000010034800490071
:1000B0004400550049004E004F00000004030904AD
:1000C00009026500020100C03209040000000101BC
:1000D00000000924010001090001010904010002D6
:1000E0000103000007240100014100062402010170
:1000F0000006240202020009240301030102010098
:100100000924030204010101000905010240000560
:1001100000000525010101090582024000050000DB
:1001200005250101031201100100000008EB03483E
:10013000200100010200010011241FBECFEFD0E218
:10014000DEBFCDBF11E0A0E0B1E0E8E6FEE000E0F8
:100150000BBF02C007900D92AC31B107D9F71BBE9F
:1001600011E0ACE1B1E001C01D92A133B107E1F7AC
:10017000ACD078C645CF9BB1809589238BB90895C3
:10018000CF93DF9384B7877F84BF28E10FB6F894BD
:1001900020936000109260000FBE90E080E80FB6E0
:1001A000F89480936100909361000FBE8FE090E01F
:1001B0009093CD008093CC0086E08093CA0010928B
:1001C000C800C9ECD0E02883539A5A9A8AB1806F4C
:1001D0008AB98BB18F708BB962D384E085BD1882E8
:1001E00088E98883DF91CF9108958BB18F70806A01
:1001F0008BB908958BB18F7080618BB9089580E0C1
:1002000091E0B3D5882311F090E601C090E98BB15D
:100210008F70892B8BB908950895CF93DF9300D009
:1002200000D0CDB7DEB780E091E0BE016F5F7F4FB9
:10023000F7D58823C9F08A819091C80095FFFCCF3B
:100240008093CE008B819091C80095FFFCCF809366
:10025000CE008C819091C80095FFFCCF8093CE009A
:100260005D9A88E880931C010F900F900F900F907B
:10027000DF91CF910895CF93DF9300D000D0CDB719
:10028000DEB780911E018130C9F410921E011982DF
:10029000809121018A83809122018B8380912301A7
:1002A0008C8380E091E0BE016F5F7F4F74D580E06A
:1002B00091E08ED55C9A88E880931D010F900F9095
:1002C0000F900F90DF91CF9108955ADF80E153DFB7
:1002D00080E251DF7894789480911D01882321F089
:1002E000815080931D0102C080E145DF80911C0197
:1002F000882321F0815080931C0102C080E23BDF03
:100300008CDFB9DF80E091E07CD513D5E5CF1F927B
:100310000F920FB60F9211248F939F938091CE006E
:1003200090912801943029F587FF0DC010921F018C
:1003300010922001109221011092220110922301AB
:100340008093210116C087FD14C090911F0199234D
:1003500031F491E090931F01809322010AC09091A3
:100360001F01913031F410921F018093230190936B
:100370001E019F918F910F900FBE0F901F901895A7
:10038000923029F0933041F09130E9F417C085E6BE
:1003900090E0E0ECF0E01BC0813041F0813018F0DB
:1003A000823089F406C0ECEBF0E005C0EAEAF0E048
:1003B00002C0E8E9F0E0849190E009C082E190E0B9
:1003C000E5E2F1E004C080E090E0E0E0F0E0DA0196
:1003D0001196FC93EE930895AF92BF92CF92DF9265
:1003E000EF92FF921F93CF93DF93EC017B016A01A1
:1003F000DED1182F8823A9F5C114D10439F0F601F4
:1004000020813181E21AF30AC20FD31FAA24BB2430
:1004100023C08091E80085FD16C08091E8008E77AA
:100420008093E80086D4C114D10449F0F60180819C
:1004300091818A0D9B1D9183808315E012C0B7D1F5
:10044000882351F00DC089918093F1000894E10850
:10045000F1080894A11CB11CE114F104D1F601C00B
:10046000182F812FDF91CF911F91FF90EF90DF9098
:10047000CF90BF90AF900895AF92BF92CF92DF928E
:10048000EF92FF921F93CF93DF93EC017B016A0100
:100490008ED1182F8823A9F5C114D10439F0F601A3
:1004A00020813181E21AF30AC20FD31FAA24BB2490
:1004B00023C08091E80085FD16C08091E8008B770D
:1004C0008093E80036D4C114D10449F0F60180814C
:1004D00091818A0D9B1D9183808315E012C067D1A5
:1004E000882351F00DC08091F10089930894E108B0
:1004F000F1080894A11CB11CE114F104D1F601C06B
:10050000182F812FDF91CF911F91FF90EF90DF90F7
:10051000CF90BF90AF90089520912F01309130017E
:100520002617370720F4B901FC0120E037C0611518
:100530007105D1F72091E8002E772093E800F4CFE1
:1005400080912801882309F43FC08530C9F180914A
:10055000E80083FD37C08091E80082FD2BC08091C8
:10056000E80080FF1BC08091F2009091F30006C06C
:1005700021912093F1006150704001966115710541
:1005800019F088309105A0F321E08830910509F039
:1005900020E08091E8008E778093E8006115710576
:1005A00079F6222369F606C080912801882361F03C
:1005B000853061F08091E80082FFF6CF80E00895F9
:1005C00083E0089581E0089582E0089583E008952E
:1005D00020912F01309130012617370720F4B901FF
:1005E000FC0120E038C061157105D1F72091E800C9
:1005F0002E772093E800F4CF80912801882309F416
:1006000040C08530D1F18091E80083FD38C08091F1
:10061000E80082FD2CC08091E80080FF1CC0809122
:10062000F2009091F30007C024912093F1003196DD
:100630006150704001966115710519F0883091057F
:1006400098F321E08830910509F020E08091E800DE
:100650008E778093E8006115710571F6222361F6AB
:1006600006C080912801882361F0853061F0809177
:10067000E80082FFF6CF80E0089583E0089581E0EE
:10068000089582E0089583E00895982F2AC09093FA
:10069000E900981739F07091EC002091ED0050912D
:1006A000F00003C0242F762F50E021FF19C03091B5
:1006B000EB003E7F3093EB003091ED003D7F3093B7
:1006C000ED003091EB0031603093EB007093EC0063
:1006D0002093ED005093F0002091EE0027FF08C01A
:1006E0009F5F9730A0F28F708093E90081E00895BA
:1006F00080E008950F931F93CF93DF93162FEC01A3
:1007000000E02AC09881992329F16B81E981FA815F
:100710002C81892F8F70873018F56295660F660FD0
:10072000607C991F9927991F692B223010F096E061
:1007300001C092E028E030E040E003C04F5F220FAC
:10074000331F2E173F07D0F34295407F492B9DDF83
:10075000882331F00F5F25960117A1F681E001C0D3
:1007600080E0DF91CF911F910F9108958091290131
:1007700087FF13C004C0809128018823B9F08091BD
:10078000E80082FFF8CF8091E8008B778093E80043
:10079000089580912801882349F08091E80080FF26
:1007A000F8CF8091E8008E778093E80008958091DB
:1007B000E4009091E50045E601C0C9012091EC00FC
:1007C00020FF23C02091E80020FD15C020912801C2
:1007D000222399F0253099F02091EB0025FD11C0DE
:1007E0002091E4003091E5002817390739F3415092
:1007F00021F784E0089580E0089582E0089583E081
:10080000089581E0089580E008952091E80022FF96
:10081000DDCFF9CF0F931F93CF93DF934ED055D0F9
:10082000C8EDD0E088818F7788838881806888834D
:1008300088818F7D8883E7EDF0E080818068808308
:1008400019BC1092280110922401109226011092D6
:10085000250100EE10E0F80180818B7F8083888184
:100860008160888380E060E042E00FDFE1EEF0E04D
:1008700080818E7F8083E2EEF0E0808181608083E2
:10088000808188608083F80180818E7F8083888169
:1008900080618883DF91CF911F910F910895E8EDDA
:1008A000F0E080818F7E8083E7EDF0E080818160E1
:1008B000808381E080932701ADCFE8EDF0E0808177
:1008C0008C7F80831092E20008951092DA001092DB
:1008D000E10008951F920F920FB60F920BB60F9280
:1008E00011242F933F934F935F936F937F938F9335
:1008F0009F93AF93BF93EF93FF938091E10082FFAB
:100900000AC08091E20082FF06C08091E1008B7FE7
:100910008093E1000DD28091DA0080FF1DC08091AC
:10092000D80080FF19C08091DA008E7F8093DA00B2
:100930008091D90080FF0CC08CE089BD8EE089BD1C
:1009400009B400FEFDCF81E0809328014EDC04C095
:1009500019BC109228014EDC8091E10080FF18C084
:100960008091E20080FF14C08091E2008E7F80932E
:10097000E2008091E20080618093E2008091D800E3
:1009800080628093D80019BC85E080932801D0D183
:100990008091E10084FF2DC08091E20084FF29C096
:1009A0008CE089BD8EE089BD09B400FEFDCF809149
:1009B000D8008F7D8093D8008091E1008F7E809356
:1009C000E1008091E2008F7E8093E2008091E2005E
:1009D00081608093E20080912401882321F480913A
:1009E000E30087FF02C084E001C081E0809328011A
:1009F0009FD18091E10083FF22C08091E20083FFBC
:100A00001EC08091E100877F8093E10082E08093A7
:100A10002801109224018091E1008E7F8093E100F3
:100A20008091E2008E7F8093E2008091E2008061FD
:100A30008093E20080E060E042E027DE79D1FF9120
:100A4000EF91BF91AF919F918F917F916F915F9146
:100A50004F913F912F910F900BBE0F900FBE0F90B3
:100A60001F9018951F93CF93DF93CDB7DEB7AC9748
:100A70000FB6F894DEBF0FBECDBF80E0E9E2F1E033
:100A80009091F10091938F5F8830D1F7C5DB809111
:100A9000E80083FF35C18091290120912A0125308A
:100AA00009F484C0263040F42130A1F1213070F0E7
:100AB000233009F025C12EC0283009F4F3C02930B5
:100AC00009F402C1263009F01BC193C0803821F01F
:100AD000823809F015C108C0809125019091260146
:100AE000992371F082600CC080912D018F708093EA
:100AF000E9009091EB0081E095FF80E01092E90021
:100B00009091E800977F9093E8008093F100109215
:100B1000F100D3C0882319F0823009F0F1C090E0D1
:100B20008F719070009729F08230910509F0E8C02C
:100B30000BC080912B01813009F0E2C0233009F015
:100B400080E0809326012CC080912B01882341F501
:100B500020912D012F7009F4D3C02093E9008091DA
:100B6000EB0080FF1DC080912A01833021F4809129
:100B7000EB00806213C08091EB0080618093EB00FA
:100B800081E090E002C0880F991F2A95E2F78093D8
:100B9000EA001092EA008091EB0088608093EB00FD
:100BA0001092E9008091E800877F8AC0882309F0CD
:100BB000A7C010912B011F778091E3008078812BD3
:100BC0008093E3008091E800877F8093E800CEDD8A
:100BD0008091E80080FFFCCF8091E30080688093E3
:100BE000E300112311F083E001C082E0809328012B
:100BF00087C08058823008F083C080912B0190918B
:100C00002C0123E08C3D9207A9F583E08C838AE2D6
:100C10008B835FB7F894DE01139680E090E04EE09E
:100C200061E2E42FF0E060935700E49180FF03C09D
:100C3000E295EF704F5FEF702E2F30E0EA3018F042
:100C4000295C3F4F02C0205D3F4F13963C932E938B
:100C50001297019612968431910519F75FBF809122
:100C6000E800877F8093E800CE0103966AE270E097
:100C700053DC12C060912D01AE014F5F5F4F80DBEE
:100C8000BC01009709F43CC08091E800877F809305
:100C9000E80089819A819CDC8091E8008B778093C1
:100CA000E8002EC0803861F58091E800877F80934E
:100CB000E800809124018093F1008091E8008E7714
:100CC0008093E80053DD1CC08823D1F490912B0160
:100CD0009230B0F48091E800877F8093E800909391
:100CE000240144DD80912401882321F48091E300D4
:100CF00087FF02C084E001C081E0809328017FDA91
:100D00008091E80083FF0AC08091E800877F80938C
:100D1000E8008091EB0080628093EB00AC960FB608
:100D2000F894DEBF0FBECDBFDF91CF911F91089524
:100D30000895CF93809128018823A9F08091E9003C
:100D40008F709091EC0090FF02C0C0E801C0C0E03D
:100D5000C82B1092E9008091E80083FF01C082DE79
:100D6000CF70C093E900CF910895CF93DF93EC014A
:100D70001B8682E08C838987CE01019661E0BADC14
:100D8000882329F0CE01069661E0B4DC01C080E042
:100D9000DF91CF910895FC01CB01209128012430EF
:100DA000A9F421812F702093E90064E070E040E015
:100DB00050E012DB882359F49091E80095FD07C0BC
:100DC0009091E8009E779093E800089582E008955E
:100DD00020912801243089F4FC0181818F70809357
:100DE000E9008091F2009091F300009741F080912A
:100DF000E8008E778093E800DACC82E0089580E006
:100E0000089520912801243051F4FC0121812F7094
:100E10002093E9002091E80020FF01C0D9CF089578
:100E2000FC01CB01209128012430C1F426812F70D0
:100E30002093E9002091E80025FF10C064E070E0F5
:100E400040E050E019DB8091E80085FD09C0809109
:100E5000E8008B778093E80081E0089580E00895B2
:080E600081E00895F894FFCF32
:100E6800018240000001014000000100A1200000B3
:0C0E780000000200A101000000000000CA
:00000001FF
