:100000009BC00000B4C00000B2C00000B0C000003F
:10001000AEC00000ACC00000AAC00000A8C0000034
:10002000A6C00000A4C00000A2C0000076C200006C
:100030009EC000009CC000009AC0000098C0000054
:1000400096C0000094C0000092C0000090C0000064
:100050008EC000008CC000008AC0000094C0000068
:1000600086C0000084C0000082C0000080C0000084
:100070007EC000007CC000007AC0000078C0000094
:1000800076C0000074C0000072C0000070C00000A4
:100090006EC000006CC000001201100100000008DA
:1000A000EB03482001000102DC01090265000201A6
:1000B00000C0320904000000010100000924010011
:1000C00001090001010904010002010300000724E5
:1000D000010001410006240201010006240202027F
:1000E00000092403010301020100092403020401A1
:1000F0000101000905010240000100000525010180
:1001000001090582024000010000052501010304E8
:100110000309041003480049004400550049004EFB
:10012000004F0000001203480049004400550049F8
:10013000004E004F0000000011241FBECFEFD2E0A0
:10014000DEBFCDBF11E0A0E0B1E0E0EFFCE002C017
:1001500005900D92AA30B107D9F711E0AAE0B1E0FD
:1001600001C01D92AF31B107E1F7DED0BFC548CF66
:100170008BB180638F7E8BB908958BB180638F7D47
:100180008BB9089508951F920F920FB60F92112404
:100190008F939F939091CE0080911601843029F522
:1001A00097FF0DC010920A0110920E0110920F01DC
:1001B000109210011092110190930F0116C097FD3B
:1001C00014C080910A01882331F481E080930A01F0
:1001D000909310010AC080910A01813031F410928D
:1001E0000A019093110180930B019F918F910F90C1
:1001F0000FBE0F901F901895DF93CF9300D000D0C3
:10020000CDB7DEB780910B018130E9F410920B017C
:1002100090910F012091100130911101892F829549
:100220008F7089839F609A832B833C8380E091E069
:10023000BE016F5F7F4F08D580E091E0E8D45D9804
:1002400088E880930C010F900F900F900F90CF9142
:10025000DF910895DF93CF9300D000D0CDB7DEB704
:1002600080E091E0BE016F5F7F4FB2D48823C9F078
:100270009A818091C80085FFFCCF9093CE009B812E
:100280008091C80085FFFCCF9093CE009C81809127
:10029000C80085FFFCCF9093CE005C9888E88093DF
:1002A0000D010F900F900F900F90CF91DF91089557
:1002B00080E091E0E7D480FD02C090E201C090E1CF
:1002C0008BB19095806398239BB908950F931F93EA
:1002D00084B7877F84BF28E10FB6F894209360002D
:1002E000109260000FBE8FE190E09093CD0080935C
:1002F000CC0086E08093CA001092C80009EC10E0A0
:10030000F8012083539A5A9A8AB180638AB98BB1D3
:1003100080638BB9F3D084E085BDF801108288E951
:1003200080831F910F9108955D9A5C9ACFDF789436
:1003300080910C01882321F0815080930C0101C031
:100340005D9A80910D01882321F0815080930D01E9
:1003500001C05C9A7FDF50DF80E091E06DD425D44E
:10036000E7CFDA01923049F0933061F09130F9F43F
:10037000E8E9F0E022E130E01EC0EAEAF0E025E63C
:1003800030E019C0813049F0813018F0823079F4C2
:1003900008C0EFE0F1E0849107C0E3E1F1E084916F
:1003A00003C0E5E2F1E08491282F30E004C0E0E0F2
:1003B000F0E020E030E0ED93FC93C90108958093D4
:1003C000E9008091EB0081608093EB001092ED00DA
:1003D0006093EC004093ED008091EE00881F882729
:1003E000881F08958091170188239CF404C0809190
:1003F00016018823B9F08091E80082FFF8CF809140
:10040000E8008B778093E800089580911601882397
:1004100049F08091E80080FFF8CF8091E8008E7766
:100420008093E80008954091E4005091E50024E6AF
:100430008091EC0080FF05C08091E80080FF05C03E
:1004400022C08091E80082FD1EC0809116018823A1
:1004500011F482E00895853011F483E008958091CD
:10046000EB0085FF02C081E008958091E400909147
:10047000E50084179507E1F2222311F484E0089542
:100480002150AC01D5CF80E0089541D043D0809178
:10049000D800982F9F779093D80080688093D800D9
:1004A00084E089BD89B5826089BD09B400FEFDCFB5
:1004B0008091D8008F7D8093D80010921601109201
:1004C0001401109213011092120180E060E042E0EA
:1004D00076DF8091E1008E7F8093E1008091E200E1
:1004E00081608093E2008091E20088608093E20066
:1004F0008091E0008E7F8093E0000895E3E6F0E0D5
:1005000080818E7F808381E080931501BECF109221
:10051000E20008951092E10008951F920F920FB625
:100520000F9211242F933F934F935F936F937F9379
:100530008F939F93AF93BF93EF93FF938091E100CD
:1005400080FF1CC08091E20080FF18C08091E10014
:100550008E7F8093E1008091E2008E7F8093E200A5
:100560008091E20080618093E2008091D8008062F7
:100570008093D80019BC10921601FFDD8091E10034
:1005800084FF2EC08091E20084FF2AC084E089BDF0
:1005900089B5826089BD09B400FEFDCF8091D80085
:1005A0008F7D8093D8008091E1008F7E8093E10061
:1005B0008091E2008F7E8093E2008091E200816072
:1005C0008093E20080911401882331F48091E3004C
:1005D00087FD02C081E001C084E080931601C8DD80
:1005E0008091E10083FF22C08091E20083FF1EC062
:1005F0008091E100877F8093E10082E08093160183
:10060000109214018091E1008E7F8093E10080912F
:10061000E2008E7F8093E2008091E200806180930F
:10062000E20080E060E042E0CADE8BD18091E10030
:1006300082FF0AC08091E20082FF06C08091E10043
:100640008B7F8093E1007DD1FF91EF91BF91AF91BE
:100650009F918F917F916F915F914F913F912F91DA
:100660000F900FBE0F901F9018950F931F93DF935D
:10067000CF93CDB7DEB7AC970FB6F894DEBF0FBE01
:10068000CDBFE7E1F1E08091F100819321E0EF310E
:10069000F207C9F777DD8091E80083FF39C18091C7
:1006A000170130911801353009F487C0363040F415
:1006B0003130C9F1313070F0333009F029C133C025
:1006C000383009F4F7C0393009F406C1363009F082
:1006D0001FC199C0803821F0823809F019C108C0C3
:1006E0009091120180911301882399F0926011C0BA
:1006F00080911B0187708093E9008091EB0090E06E
:1007000025E0969587952A95E1F7982F917010929C
:10071000E9008091E800877F8093E8009093F100E2
:100720001092F100D2C0882319F0823009F0F0C095
:1007300090E08F719070009721F0029709F0E8C067
:100740000CC080911901813009F0E2C010921301B0
:10075000333069F5809313012AC0809119018823F1
:1007600031F520911B01277009F4D2C02093E900D4
:100770008091EB0080FF1BC0333021F48091EB00AF
:10078000806213C08091EB0080618093EB0081E078
:1007900090E002C0880F991F2A95E2F78093EA0043
:1007A0001092EA008091EB0088608093EB00109239
:1007B000E9008091E800877F8BC0882309F0A8C0FA
:1007C000109119011F770FB7F8948091E800877F87
:1007D0008093E80007DE8091E80080FFFCCF1123C2
:1007E00011F482E001C083E0809316018091E30060
:1007F0008078182B1093E3008091E3008068809349
:10080000E3000FBF85C08058823008F081C080911E
:10081000190190911A0123E08C3D920799F57FB759
:10082000F894DE0115966EE040E050E011E2E62F0C
:10083000F0E010935700849140FF03C082958F70C1
:100840006F5F8F70282F30E08A3018F0C901C7968B
:1008500002C0C901C0968D939D934F5F5F4F443195
:10086000510529F77FBF8AE28B8383E08C838091D7
:10087000E800877F8093E800CE0103966AE270E08B
:1008800061D012C060911B01AE014F5F5F4F69DD07
:10089000BC01009709F43CC08091E800877F8093F9
:1008A000E80089819A81ACD08091E8008B778093B1
:1008B000E8002EC0803861F58091E800877F809342
:1008C000E800809114018093F1008091E8008E7718
:1008D0008093E80087DD1CC08823D1F49091190132
:1008E0009230B0F48091E800877F8093E800909385
:1008F000140178DD80911401882331F48091E300A4
:1009000087FD02C081E001C084E080931601D0DC45
:100910008091E80083FF0AC08091EB0080628093A1
:10092000EB008091E800877F8093E800AC960FB6DB
:10093000F894DEBF0FBECDBFCF91DF911F910F9115
:10094000089508959C0140911D0150911E01461784
:10095000570718F4F90190E03DC06115710511F0D9
:10096000AB01F8CF8091E8008E778093E80040E0FB
:1009700050E0F0CF809116018823F1F18530F1F13C
:100980008091E80083FF02C081E008958091E80033
:1009900082FD2CC08091E80080FF1CC08091F20095
:1009A000282F30E007C081918093F10041505040E2
:1009B0002F5F3F4F4115510519F02830310598F34D
:1009C00090E02830310509F491E08091E8008E77BD
:1009D0008093E8004115510569F6992359F606C040
:1009E00080911601882341F0853041F08091E80024
:1009F00082FFF6CF80E0089582E0089583E00895B5
:100A00009C0140911D0150911E014617570710F49B
:100A100060E03FC06115710511F0AB01F9CF809125
:100A2000E8008E778093E80040E050E0F1CF8091BD
:100A30001601882309F43FC0853009F43EC0809137
:100A4000E80083FF02C081E008958091E80082FD04
:100A50002CC08091E80080FF1CC08091F20090E0E3
:100A600009C0F9012F5F3F4FE491E093F10041503D
:100A7000504001964115510519F08830910588F3D1
:100A800060E0089709F461E08091E8008E77809338
:100A9000E8004115510559F6662349F606C08091D4
:100AA0001601882341F0853041F08091E80082FFF3
:100AB000F6CF80E0089582E0089583E00895DF9204
:100AC000EF92FF920F931F93CF93DF93182F092F6D
:100AD000EB017A01A8DCD82E882319F5812F902FFD
:100AE0009C0189011CC08091E80085FD12C08091A5
:100AF000E8008B778093E800E114F10431F0F7010E
:100B00000995813011F485E00DC08DDC882339F022
:100B100009C08091F100F80181938F0121972097FE
:100B200011F78D2DDF91CF911F910F91FF90EF90D5
:100B3000DF900895DF92EF92FF920F931F93CF9370
:100B4000DF93182F092FEB017A016DDCD82E882353
:100B500019F5812F902F9C0189011CC08091E8001C
:100B600085FD12C08091E8008E778093E800E11443
:100B7000F10431F0F7010995813011F485E00DC0E1
:100B800052DC882339F009C0F80181918F018093EC
:100B9000F1002197209711F78D2DDF91CF911F91B3
:100BA0000F91FF90EF90DF9008951F9380911601B1
:100BB000882361F01091E9001092E9008091E8002B
:100BC00083FF01C052DD17701093E9001F91089553
:100BD000FC01809116018430C1F485818093E90085
:100BE0008091E80085FF11C0CB0164E070E040E037
:100BF00050E065DF8091E80085FD05C08091E80048
:100C00008B778093E80081E0089580E00895FC01EF
:100C100080911601843011F082E0089581818093E3
:100C2000E9008091F200882331F08091E8008E770E
:100C30008093E800F8CB08959C01809116018430E0
:100C400011F4C901E4CF0895FC01809116018430AC
:100C500011F092E015C081818093E900CB0164E03E
:100C600070E040E050E066DF982F882349F48091DF
:100C7000E80085FD05C08091E8008E778093E8004C
:100C8000892F08951F93CF93DF93EC0111E08981A1
:100C9000181729F4EA81FB818C8161E007C08D81FE
:100CA0001817E1F4EE81FF81888560E0882311F454
:100CB00040E001C044E020E088E090E003C02F5F06
:100CC000880F991F8E179F07D0F3606842602295A6
:100CD000207F422B812F73DB882321F01F5F15308B
:100CE000B1F681E0DF91CF911F910895F894FFCF85
:0A0CF0000102400000014000000076
:00000001FF
