:10000000A2C00000BBC00000B9C00000B7C0000023
:10001000B5C00000B3C00000B1C00000AFC0000018
:10002000ADC00000ABC00000A9C000005AC2000073
:10003000A5C00000A3C00000A1C000009FC0000038
:100040009DC000009BC0000099C0000097C0000048
:1000500095C0000093C0000091C000009BC000004C
:100060008DC000008BC0000089C0000087C0000068
:1000700085C0000083C0000081C000007FC0000078
:100080007DC000007BC0000079C0000077C0000088
:1000900075C0000073C000001201100100000008CC
:1000A000EB03482001000102000109026500020182
:1000B00000C0320904000000010100000924010011
:1000C00001090001010904010002010300000724E5
:1000D000010001410006240201010006240202027F
:1000E00000092403010301020100092403020401A1
:1000F0000101000905010240000100000525010180
:1001000001090582024000010000052501010304E8
:100110000309041003480049004400550049004EFB
:10012000004F0000001603480049004400550049F4
:10013000004E004F00200044006500760069006317
:1001400000650000000011241FBECFEFD2E0DEBF2B
:10015000CDBF11E0A0E0B1E0E8EBFCE002C005900B
:100160000D92AA30B107D9F711E0AAE0B1E001C0C1
:100170001D92AD31B107E1F7CFD09CC541CF8BB116
:1001800080638F7E8BB908958BB180638F7D8BB92F
:10019000089508951F920F920FB60F9211248F9316
:1001A0009F939091CE0080911401843029F597FFA0
:1001B0000DC010920A0110920C0110920D011092C4
:1001C0000E0110920F0190930D0116C097FD14C0FF
:1001D00080910A01882331F481E080930A01909391
:1001E0000E010AC080910A01813031F410920A0197
:1001F00090930F0180930B019F918F910F900FBEF1
:100200000F901F901895DF93CF9300D000D0CDB7FB
:10021000DEB780910B018130C1F410920B019091F7
:100220000D0120910E0130910F01892F82958F7061
:1002300089839A832B833C8380E091E0BE016F5FCA
:100240007F4FE6D480E091E0C6D40F900F900F90DE
:100250000F90CF91DF910895DF93CF9300D000D01E
:10026000CDB7DEB780E091E0BE016F5F7F4F94D4E1
:100270008823A9F09A818091C80085FFFCCF9093D4
:10028000CE009B818091C80085FFFCCF9093CE006B
:100290009C818091C80085FFFCCF9093CE000F9089
:1002A0000F900F900F90CF91DF91089580E091E033
:1002B000CDD480FD02C090E201C090E18BB1909559
:1002C000806398239BB9089584B7877F84BF28E112
:1002D0000FB6F89420936000109260000FBEE9EC16
:1002E000F0E08081806C80838FE190E09093CD007E
:1002F0008093CC0086E08093CA001092C8002083CF
:10030000539A5A9A8AB180638AB98BB180638BB948
:10031000D9D084E085BD0895D7DF78949DDF73DF61
:1003200080E091E06DD425D4F9CFDA01923049F024
:10033000933061F09130F9F4E8E9F0E022E130E047
:100340001EC0EAEAF0E025E630E019C0813049F04D
:10035000813018F0823079F408C0EFE0F1E0849148
:1003600007C0E3E1F1E0849103C0E5E2F1E08491AC
:10037000282F30E004C0E0E0F0E020E030E0ED9332
:10038000FC93C90108958093E9008091EB0081609E
:100390008093EB001092ED006093EC004093ED0031
:1003A0008091EE00881F8827881F0895809115018D
:1003B00088239CF404C0809114018823B9F08091B3
:1003C000E80082FFF8CF8091E8008B778093E80007
:1003D000089580911401882349F08091E80080FFFE
:1003E000F8CF8091E8008E778093E80008954091DF
:1003F000E4005091E50024E68091EC0080FF05C008
:100400008091E80080FF05C022C08091E80082FD55
:100410001EC080911401882311F482E00895853074
:1004200011F483E008958091EB0085FF02C081E024
:1004300008958091E4009091E50084179507E1F21A
:10044000222311F484E008952150AC01D5CF80E03F
:10045000089541D043D08091D800982F9F779093F2
:10046000D80080688093D80084E089BD89B5826017
:1004700089BD09B400FEFDCF8091D8008F7D8093A7
:10048000D8001092140110921201109211011092D2
:10049000100180E060E042E076DF8091E1008E7F35
:1004A0008093E1008091E20081608093E20080917E
:1004B000E20088608093E2008091E0008E7F80936C
:1004C000E0000895E3E6F0E080818E7F808381E0A4
:1004D00080931301BECF1092E20008951092E100C4
:1004E00008951F920F920FB60F9211242F933F93EE
:1004F0004F935F936F937F938F939F93AF93BF932C
:10050000EF93FF938091E10080FF1CC08091E20097
:1005100080FF18C08091E1008E7F8093E100809180
:10052000E2008E7F8093E2008091E2008061809300
:10053000E2008091D80080628093D80019BC1092AC
:10054000140122DE8091E10084FF2EC08091E20040
:1005500084FF2AC084E089BD89B5826089BD09B461
:1005600000FEFDCF8091D8008F7D8093D8008091D0
:10057000E1008F7E8093E1008091E2008F7E809386
:10058000E2008091E20081608093E200809112019C
:10059000882331F48091E30087FD02C081E001C02F
:1005A00084E080931401EBDD8091E10083FF22C0A1
:1005B0008091E20083FF1EC08091E100877F8093DD
:1005C000E10082E080931401109212018091E10019
:1005D0008E7F8093E1008091E2008E7F8093E20025
:1005E0008091E20080618093E20080E060E042E080
:1005F000CADE8BD18091E10082FF0AC08091E200C7
:1006000082FF06C08091E1008B7F8093E1007DD165
:10061000FF91EF91BF91AF919F918F917F916F91DA
:100620005F914F913F912F910F900FBE0F901F90B0
:1006300018950F931F93DF93CF93CDB7DEB7AC9789
:100640000FB6F894DEBF0FBECDBFE5E1F1E08091BB
:10065000F100819321E0ED31F207C9F79ADD809135
:10066000E80083FF39C180911501309116013530C2
:1006700009F487C0363040F43130C9F1313070F0C0
:10068000333009F029C133C0383009F4F7C03930AC
:1006900009F406C1363009F01FC199C0803821F035
:1006A000823809F019C108C09091100180911101A0
:1006B000882399F0926011C080911901877080930E
:1006C000E9008091EB0090E025E0969587952A95CA
:1006D000E1F7982F91701092E9008091E800877FF0
:1006E0008093E8009093F1001092F100D2C088232B
:1006F00019F0823009F0F0C090E08F71907000978F
:1007000021F0029709F0E8C00CC0809117018130F8
:1007100009F0E2C010921101333069F580931101A4
:100720002AC080911701882331F520911901277083
:1007300009F4D2C02093E9008091EB0080FF1BC038
:10074000333021F48091EB00806213C08091EB0084
:1007500080618093EB0081E090E002C0880F991FD8
:100760002A95E2F78093EA001092EA008091EB006C
:1007700088608093EB001092E9008091E800877F09
:100780008BC0882309F0A8C0109117011F770FB7FD
:10079000F8948091E800877F8093E80007DE8091DD
:1007A000E80080FFFCCF112311F482E001C083E058
:1007B000809314018091E3008078182B1093E3005C
:1007C0008091E30080688093E3000FBF85C080586C
:1007D000823008F081C0809117019091180123E0C8
:1007E0008C3D920799F57FB7F894DE0115966EE07F
:1007F00040E050E011E2E62FF0E0109357008491C2
:1008000040FF03C082958F706F5F8F70282F30E09C
:100810008A3018F0C901C79602C0C901C0968D93ED
:100820009D934F5F5F4F4431510529F77FBF8AE2A7
:100830008B8383E08C838091E800877F8093E8003E
:10084000CE0103966AE270E061D012C06091190196
:10085000AE014F5F5F4F69DDBC01009709F43CC0FA
:100860008091E800877F8093E80089819A81ACD0ED
:100870008091E8008B778093E8002EC0803861F586
:100880008091E800877F8093E80080911201809337
:10089000F1008091E8008E778093E80087DD1CC02E
:1008A0008823D1F4909117019230B0F48091E80040
:1008B000877F8093E8009093120178DD8091120188
:1008C000882331F48091E30087FD02C081E001C0FC
:1008D00084E080931401EADC8091E80083FF0AC081
:1008E0008091EB0080628093EB008091E800877F2D
:1008F0008093E800AC960FB6F894DEBF0FBECDBF74
:10090000CF91DF911F910F91089508959C0140911F
:100910001B0150911C014617570718F4F90190E08C
:100920003DC06115710511F0AB01F8CF8091E80071
:100930008E778093E80040E050E0F0CF8091140182
:100940008823F1F18530F1F18091E80083FF02C046
:1009500081E008958091E80082FD2CC08091E8003C
:1009600080FF1CC08091F200282F30E007C08191E9
:100970008093F100415050402F5F3F4F411551058A
:1009800019F02830310598F390E02830310509F44A
:1009900091E08091E8008E778093E8004115510541
:1009A00069F6992359F606C080911401882341F015
:1009B000853041F08091E80082FFF6CF80E0089515
:1009C00082E0089583E008959C0140911B015091BD
:1009D0001C014617570710F460E03FC06115710510
:1009E00011F0AB01F9CF8091E8008E778093E80099
:1009F00040E050E0F1CF80911401882309F43FC01A
:100A0000853009F43EC08091E80083FF02C081E098
:100A100008958091E80082FD2CC08091E80080FF5D
:100A20001CC08091F20090E009C0F9012F5F3F4F98
:100A3000E491E093F1004150504001964115510579
:100A400019F08830910588F360E0089709F461E0B7
:100A50008091E8008E778093E8004115510559F6A2
:100A6000662349F606C080911401882341F0853041
:100A700041F08091E80082FFF6CF80E0089582E0A7
:100A8000089583E00895DF92EF92FF920F931F93F2
:100A9000CF93DF93182F092FEB017A01A8DCD82E12
:100AA000882319F5812F902F9C0189011CC080910A
:100AB000E80085FD12C08091E8008B778093E80004
:100AC000E114F10431F0F7010995813011F485E06A
:100AD0000DC08DDC882339F009C08091F100F80148
:100AE00081938F012197209711F78D2DDF91CF9161
:100AF0001F910F91FF90EF90DF900895DF92EF929A
:100B0000FF920F931F93CF93DF93182F092FEB01C1
:100B10007A016DDCD82E882319F5812F902F9C0146
:100B200089011CC08091E80085FD12C08091E80019
:100B30008E778093E800E114F10431F0F701099514
:100B4000813011F485E00DC052DC882339F009C0F2
:100B5000F80181918F018093F1002197209711F77F
:100B60008D2DDF91CF911F910F91FF90EF90DF902E
:100B700008951F9380911401882361F01091E9007A
:100B80001092E9008091E80083FF01C052DD1770E8
:100B90001093E9001F910895FC01809114018430A5
:100BA000C1F485818093E9008091E80085FF11C040
:100BB000CB0164E070E040E050E065DF8091E80048
:100BC00085FD05C08091E8008B778093E80081E087
:100BD000089580E00895FC0180911401843011F0A3
:100BE00082E0089581818093E9008091F20088235A
:100BF00031F08091E8008E778093E800F8CB08957B
:100C00009C0180911401843011F4C901E4CF08954E
:100C1000FC0180911401843011F092E015C08181B3
:100C20008093E900CB0164E070E040E050E066DFD3
:100C3000982F882349F48091E80085FD05C08091B4
:100C4000E8008E778093E800892F08951F93CF9353
:100C5000DF93EC0111E08981181729F4EA81FB8107
:100C60008C8161E007C08D811817E1F4EE81FF816E
:100C7000888560E0882311F440E001C044E020E072
:100C800088E090E003C02F5F880F991F8E179F07A1
:100C9000D0F3606842602295207F422B812F73DB66
:100CA000882321F01F5F1530B1F681E0DF91CF91ED
:080CB0001F910895F894FFCF95
:0A0CB80001024000000140000000AE
:00000001FF
