:10000000E5C00000FFC00000FDC00000FBC0000014
:10001000F9C00000F7C00000F5C00000F3C0000008
:10002000F1C00000EFC00000EDC000004DC40000B2
:10003000E9C00000E7C00000E5C00000E3C0000028
:10004000E1C00000DFC00000DDC00000DBC0000038
:10005000D9C00000D7C00000D5C000006BC10000AF
:10006000D1C00000CFC00000CDC00000CBC0000058
:10007000C9C00000C7C00000C5C00000C3C0000068
:10008000C1C00000BFC00000BDC00000BBC0000078
:10009000B9C00000B7C00000120110010000000844
:1000A000EB034F200100010200010902650002017B
:1000B00000C0320904000000010100000924010011
:1000C00001090001010904010002010300000724E5
:1000D000010001410006240201010006240202027F
:1000E00000092403010301020100092403020401A1
:1000F0000101000905010240000100000525010180
:1001000001090582024000010000052501010304E8
:100110000309041003480049004400550049004EFB
:10012000004F0000001A03480049004400550049F0
:10013000004E004F0020004D0049004400490000DF
:10014000001201100102000008EB034C2001000125
:1001500002DC0109024300020100C0320904000070
:10016000010202010005240001100524010301041D
:100170002402060524060001070581030800FF0983
:10018000040100020A000000070503024000000706
:1001900005820240000004030904100348004900DE
:1001A0004400550049004E004F0000001E03480067
:1001B00049004400550049004E004F002000530004
:1001C00065007200690061006C00000011241FBE10
:1001D000CFEFD2E0DEBFCDBF11E0A0E0B1E0EAEEAC
:1001E000F3E102C005900D92A032B107D9F712E0F9
:1001F000A0E2B1E001C01D92A034B107E1F74FD2F7
:100200000C94F309FDCE9C01DC01AE57BF4FED917C
:10021000FC91119741911196FC93EE9380589F4F5A
:10022000E817F90711F42D933C939FB7F894F9015F
:10023000EC57FF4F8081815080839FBF842F0895AA
:100240008BB180638F7E8BB908958BB180638F7D76
:100250008BB90895DF92EF92FF920F931F93FC01E9
:100260008489813019F0823021F405C040E3D42E16
:1002700004C0DD2402C030E2D32E8389823011F421
:1002800088E0D82A8589873031F0883031F086308F
:1002900031F482E003C084E001C086E0D82A1092E5
:1002A000C9001092C8001092CA00E784F088018942
:1002B000128980E0E81681EEF80680E0080780E009
:1002C000180719F420E130E010C0C801B701969575
:1002D00087957795679560587B47814E9F4FA8011A
:1002E00097010E94D109215030403093CD002093D6
:1002F000CC00D092CA0080E0E81681EEF80680E0DB
:10030000080780E0180711F082E001C080E08093C8
:10031000C80088E98093C9001F910F91FF90EF906A
:10032000DF900895FC01858580FF02C05F980895E5
:100330005F9A08951F920F920FB60F9211242F9378
:100340008F939F93EF93FF939091CE00809137020C
:10035000843009F048C0809100018823F9F4E091CD
:10036000A901F091AA019083E091A901F091AA015D
:10037000CF0101969093AA018093A901895A9140D7
:1003800021F489E291E0928381839FB7F894809170
:10039000AD018F5F8093AD019FBF25C097FF0DC05A
:1003A000109220011092250110922601109227012F
:1003B000109228019093260116C097FD14C08091D9
:1003C0002001882331F481E080932001909327015C
:1003D0000AC080912001813031F410922001909365
:1003E000280180932101FF91EF919F918F912F918F
:1003F0000F900FBE0F901F901895DF93CF9300D0F2
:1004000000D0CDB7DEB7809121018130D1F41092B8
:1004100021015D98909126012091270130912801BA
:10042000892F82958F7089839A832B833C8387E100
:1004300091E0BE016F5F7F4F62D787E191E042D7C5
:1004400001C05D9A0F900F900F900F90CF91DF91A8
:100450000895DF93CF9300D000D0CDB7DEB787E10A
:1004600091E0BE016F5F7F4F0ED78823B9F05C9893
:100470009A818091C80085FFFCCF9093CE009B812C
:100480008091C80085FFFCCF9093CE009C81809125
:10049000C80085FFFCCF9093CE0001C05C9A0F90FE
:1004A0000F900F900F90CF91DF910895D2DFA5DFCD
:1004B00087E191E01CC71F938FB7F89490913202A7
:1004C0008FBF903819F181E091E099D597FD1EC05A
:1004D000E0912E02F0912F028083E0912E02F091A4
:1004E0002F02CF01019690932F0280932E028E52FD
:1004F000924021F48EEA91E0928381839FB7F89431
:10050000809132028F5F809332029FBF8FB7F89441
:100510001091AD018FBFA89902C0113680F1A89A41
:100520008091AD01882369F05D9883E0809322017A
:1005300008C089E291E067DE682F81E091E0C8D5CC
:1005400011501123B1F780912201882351F080913D
:10055000220181508093220180912201882309F495
:100560005D9A80912301882351F08091230181506D
:100570008093230180912301882309F45C9A8FB72B
:10058000F894909132028FBF992371F08EEA91E036
:100590003ADE982F8091C80085FFFCCF9093CE0063
:1005A0005C9883E08093230181E091E081D51F91E5
:1005B00008959C0180910001882311F4C901A8C00D
:1005C000C90178C080910001882319F481E091E08D
:1005D000EDC50895809100018823F1F42FB7F894B8
:1005E0008EEA91E090932F0280932E029093310235
:1005F000809330022FBF2FB7F89489E291E0909357
:10060000AA018093A9019093AC018093AB012FBF05
:1006100081E091E082D508C08091C900806C809310
:10062000C90087E191E089D6817011F490E201C0A0
:1006300090E18BB19095806398239BB908952198A0
:10064000299A83B190E096958795817080930001F7
:10065000299884B7877F84BF28E10FB6F894209348
:100660006000109260000FBE87E690E09093CD008E
:100670008093CC0086E08093CA001092C80020933B
:10068000C900539A5A9A8AB180638AB98BB1806340
:100690008BB90BD184E085BD5F9A579A0895CFDF5F
:1006A000789480910001882311F405DF01C0FEDEFB
:1006B00092D4F7CFDA01923049F0933061F0913063
:1006C000F9F4E8E9F0E022E130E01EC0EAEAF0E007
:1006D00025E630E019C0813049F0813018F08230D1
:1006E00079F408C0EFE0F1E0849107C0E3E1F1E0C4
:1006F000849103C0E5E2F1E08491282F30E004C04A
:10070000E0E0F0E020E030E0ED93FC93C9010895D3
:10071000DA01923049F0933061F09130F9F4E1E47C
:10072000F1E022E130E01EC0E3E5F1E023E430E057
:1007300019C0813049F0813018F0823079F408C056
:10074000E6E9F1E0849107C0EAE9F1E0849103C0B1
:10075000ECEAF1E08491282F30E004C0E0E0F0E022
:1007600020E030E0ED93FC93C90108958093E90007
:100770008091EB0081608093EB001092ED0060931C
:10078000EC004093ED008091EE00881F8827881FC1
:1007900008958091380288239CF404C08091370228
:1007A0008823B9F08091E80082FFF8CF8091E800BB
:1007B0008B778093E800089580913702882349F071
:1007C0008091E80080FFF8CF8091E8008E778093D9
:1007D000E80008954091E4005091E50024E68091FE
:1007E000EC0080FF05C08091E80080FF05C022C0BA
:1007F0008091E80082FD1EC080913702882311F4A9
:1008000082E00895853011F483E008958091EB0033
:1008100085FF02C081E008958091E4009091E50099
:1008200084179507E1F2222311F484E00895215002
:10083000AC01D5CF80E0089541D043D08091D8005D
:10084000982F9F779093D80080688093D80084E099
:1008500089BD89B5826089BD09B400FEFDCF809154
:10086000D8008F7D8093D800109237021092350205
:10087000109234021092330280E060E042E076DFB2
:100880008091E1008E7F8093E1008091E2008160A1
:100890008093E2008091E20088608093E200809182
:1008A000E0008E7F8093E0000895E3E6F0E0808131
:1008B0008E7F808381E080933602BECF1092E2006B
:1008C00008951092E10008951F920F920FB60F92B3
:1008D00011242F933F934F935F936F937F938F9345
:1008E0009F93AF93BF93EF93FF938091E10080FFBD
:1008F0001CC08091E20080FF18C08091E1008E7FD3
:100900008093E1008091E2008E7F8093E2008091ED
:10091000E20080618093E2008091D8008062809341
:10092000D80019BC1092370290DC8091E10084FF5E
:100930002EC08091E20084FF2AC084E089BD89B581
:10094000826089BD09B400FEFDCF8091D8008F7D03
:100950008093D8008091E1008F7E8093E1008091A8
:10096000E2008F7E8093E2008091E20081608093BC
:10097000E20080913502882331F48091E30087FD05
:1009800002C081E001C084E08093370259DC80918D
:10099000E10083FF22C08091E20083FF1EC08091AE
:1009A000E100877F8093E10082E08093370210921C
:1009B00035028091E1008E7F8093E1008091E2001A
:1009C0008E7F8093E2008091E20080618093E2005C
:1009D00080E060E042E0CADE8BD18091E10082FFDE
:1009E0000AC08091E20082FF06C08091E1008B7F07
:1009F0008093E1007DD1FF91EF91BF91AF919F91E5
:100A00008F917F916F915F914F913F912F910F90B7
:100A10000FBE0F901F9018950F931F93DF93CF93E6
:100A2000CDB7DEB7AC970FB6F894DEBF0FBECDBF23
:100A3000E8E3F2E08091F100819322E0E034F207F4
:100A4000C9F7C0DD8091E80083FF39C18091380289
:100A500030913902353009F487C0363040F43130F6
:100A6000C9F1313070F0333009F029C133C038306A
:100A700009F4F7C0393009F406C1363009F01FC156
:100A800099C0803821F0823809F019C108C09091CE
:100A9000330280913402882399F0926011C08091D2
:100AA0003C0287708093E9008091EB0090E025E0A4
:100AB000969587952A95E1F7982F91701092E90005
:100AC0008091E800877F8093E8009093F100109276
:100AD000F100D2C0882319F0823009F0F0C090E014
:100AE0008F719070009721F0029709F0E8C00CC058
:100AF00080913A02813009F0E2C010923402333022
:100B000069F5809334022AC080913A02882331F536
:100B100020913C02277009F4D2C02093E900809113
:100B2000EB0080FF1BC0333021F48091EB0080622A
:100B300013C08091EB0080618093EB0081E090E036
:100B400002C0880F991F2A95E2F78093EA0010925D
:100B5000EA008091EB0088608093EB001092E9003E
:100B60008091E800877F8BC0882309F0A8C010918E
:100B70003A021F770FB7F8948091E800877F80933F
:100B8000E80007DE8091E80080FFFCCF112311F41C
:100B900082E001C083E0809337028091E300807897
:100BA000182B1093E3008091E30080688093E300AA
:100BB0000FBF85C08058823008F081C080913A0212
:100BC00090913B0223E08C3D920799F57FB7F89412
:100BD000DE0115966EE040E050E011E2E62FF0E015
:100BE00010935700849140FF03C082958F706F5F10
:100BF0008F70282F30E08A3018F0C901C79602C0E4
:100C0000C901C0968D939D934F5F5F4F443151054D
:100C100029F77FBF8AE28B8383E08C838091E80091
:100C2000877F8093E800CE0103966AE270E061D08E
:100C300012C060913C02AE014F5F5F4FBADCBC0155
:100C4000009709F43CC08091E800877F8093E8001A
:100C500089819A81ACD08091E8008B778093E800FD
:100C60002EC0803861F58091E800877F8093E8008E
:100C7000809135028093F1008091E8008E77809317
:100C8000E80087DD1CC08823D1F490913A029230AD
:100C9000B0F48091E800877F8093E800909335025C
:100CA00078DD80913502882331F48091E30087FD5F
:100CB00002C081E001C084E0809337028BDC809128
:100CC000E80083FF0AC08091EB0080628093EB0014
:100CD0008091E800877F8093E800AC960FB6F89487
:100CE000DEBF0FBECDBFCF91DF911F910F91089551
:100CF00008959C0140913E0250913F0246175707CC
:100D000018F4F90190E03DC06115710511F0AB01D7
:100D1000F8CF8091E8008E778093E80040E050E0C3
:100D2000F0CF809137028823F1F18530F1F1809185
:100D3000E80083FF02C081E008958091E80082FD11
:100D40002CC08091E80080FF1CC08091F200282F09
:100D500030E007C081918093F100415050402F5FF7
:100D60003F4F4115510519F02830310598F390E0B7
:100D70002830310509F491E08091E8008E77809366
:100D8000E8004115510569F6992359F606C080918E
:100D90003702882341F0853041F08091E80082FFDE
:100DA000F6CF80E0089582E0089583E008959C01E5
:100DB00040913E0250913F024617570710F460E001
:100DC0003FC06115710511F0AB01F9CF8091E800CA
:100DD0008E778093E80040E050E0F1CF80913702B9
:100DE000882309F43FC0853009F43EC08091E800B3
:100DF00083FF02C081E008958091E80082FD2CC04D
:100E00008091E80080FF1CC08091F20090E009C052
:100E1000F9012F5F3F4FE491E093F10041505040C2
:100E200001964115510519F08830910588F360E06D
:100E3000089709F461E08091E8008E778093E800DC
:100E40004115510559F6662349F606C080913702CF
:100E5000882341F0853041F08091E80082FFF6CF91
:100E600080E0089582E0089583E008959C01611573
:100E7000710529F48091E8008B778093E800F901EF
:100E800020C080913702882361F1853061F1809123
:100E9000E80083FF02C081E008958091E80082FFAE
:100EA000F0CF06C08091F10081936150704021F035
:100EB0008091F2008823B1F78091E8008B778093CE
:100EC000E80061157105E9F606C0809137028823B4
:100ED00041F0853041F08091E80080FFF6CF80E05E
:100EE000089582E0089583E00895DF92EF92FF92E3
:100EF0000F931F93CF93DF93182F092FEB017A01E4
:100F000069DCD82E882319F5812F902F9C01890147
:100F10001CC08091E80085FD12C08091E8008B77AD
:100F20008093E800E114F10431F0F7010995813074
:100F300011F485E00DC04EDC882339F009C08091A2
:100F4000F100F80181938F012197209711F78D2DE2
:100F5000DF91CF911F910F91FF90EF90DF90089557
:100F6000DF92EF92FF920F931F93CF93DF93182F8F
:100F7000092FEB017A012EDCD82E882319F5812F59
:100F8000902F9C0189011CC08091E80085FD12C052
:100F90008091E8008E778093E800E114F10431F04D
:100FA000F7010995813011F485E00DC013DC882329
:100FB00039F009C0F80181918F018093F1002197E8
:100FC000209711F78D2DDF91CF911F910F91FF90F9
:100FD000EF90DF9008951F9380913702882361F08E
:100FE0001091E9001092E9008091E80083FF01C0B0
:100FF00013DD17701093E9001F9108950895FC0107
:1010000080913702843021F587859089A189B28942
:101010000097A105B105E1F085818093E9008091F9
:10102000E80082FF15C08091F200882319F42FEFA9
:101030003FEF04C08091F100282F30E08091F20052
:10104000882341F48091E8008B778093E80002C008
:101050002FEF3FEFC9010895FC01809137028430E2
:1010600011F587859089A189B2890097A105B105FD
:10107000D1F081818093E9008091F2008823A9F06A
:101080009091E8008091E8008E778093E80095FDCC
:101090000CC0A0DB982F882349F48091E8008E775C
:1010A0008093E80003C092E001C090E0892F08958A
:1010B000FC0180913702843051F487859089A189A1
:1010C000B2890097A105B10511F0CF01C5CF0895F0
:1010D0001F93FC01162F809137028430D9F4878545
:1010E0009089A189B2890097A105B10599F0818104
:1010F0008093E9008091E80085FD08C08091E800B8
:101100008E778093E80066DB882329F41093F10042
:1011100080E001C082E01F9108951F93CF93DF9379
:10112000EC010D96FC0189E0DF011D928A95E9F73B
:1011300011E08981181729F4EA81FB818C8162E032
:1011400010C08D81181731F4EE81FF81888562E02F
:1011500030E008C08985181709F5EA85FB858C857C
:1011600063E031E0882311F440E001C044E020E076
:1011700088E090E003C02F5F880F991F8E179F07AC
:10118000D0F36295660F660F607C632B42602295F8
:10119000207F422B812FEADA882321F01F5F153050
:1011A00041F681E0DF91CF911F910895CF93DF93B6
:1011B000EC018091E80083FF63C0888190E020917A
:1011C0003C0230913D022817390709F059C080913F
:1011D0003902813261F0823220F4803209F050C04D
:1011E0001BC0823279F1833209F04AC03BC0809142
:1011F0003802813A09F044C08091E800877F8093EB
:10120000E800CE010F9667E070E073DD8091E800A2
:101210008B778093E80034C080913802813281F569
:101220008091E800877F8093E800CE010F9667E009
:1012300070E01CDE8091E8008E778093E800CE019C
:1012400009D81EC0809138028132D1F48091E80023
:10125000877F8093E8009DDA80913A028D87CE01E6
:1012600061D80EC080913802813251F48091E8003B
:10127000877F8093E8008DDACE0160913A02BEDE6E
:10128000DF91CF910895FC01809137028430C1F441
:1012900085818093E9008091E80085FF11C0CB0132
:1012A00064E070E040E050E020DE8091E80085FDE1
:1012B00005C08091E8008B778093E80081E0089575
:1012C00080E00895FC0180913702843011F082E0C3
:1012D000089581818093E9008091F200882331F0A4
:1012E0008091E8008E778093E80074CA08959C018D
:1012F00080913702843011F4C901E4CF0895FC01D4
:1013000080913702843011F092E015C08181809382
:10131000E900CB0164E070E040E050E021DE982F6E
:10132000882349F48091E80085FD05C08091E8009C
:101330008E778093E800892F08951F93CF93DF93D2
:10134000EC0111E08981181729F4EA81FB818C8175
:1013500061E007C08D811817E1F4EE81FF81888577
:1013600060E0882311F440E001C044E020E088E020
:1013700090E003C02F5F880F991F8E179F07D0F34F
:10138000606842602295207F422B812FEFD988230D
:1013900021F01F5F1530B1F681E0DF91CF911F91F1
:1013A0000895A1E21A2EAA1BBB1BFD010DC0AA1FA6
:1013B000BB1FEE1FFF1FA217B307E407F50720F0BE
:1013C000A21BB30BE40BF50B661F771F881F991F39
:1013D0001A9469F760957095809590959B01AC0182
:0A13E000BD01CF010895F894FFCF7E
:1013EA000100024000000340000001080000000064
:1013FA00000000000000000102400000014000005F
:00000001FF
